{
  "contractName": "DNFT",
  "abi": [
    {
      "inputs": [],
      "stateMutability": "nonpayable",
      "type": "constructor"
    },
    {
      "anonymous": false,
      "inputs": [
        {
          "indexed": true,
          "internalType": "address",
          "name": "owner",
          "type": "address"
        },
        {
          "indexed": true,
          "internalType": "address",
          "name": "approved",
          "type": "address"
        },
        {
          "indexed": true,
          "internalType": "uint256",
          "name": "tokenId",
          "type": "uint256"
        }
      ],
      "name": "Approval",
      "type": "event"
    },
    {
      "anonymous": false,
      "inputs": [
        {
          "indexed": true,
          "internalType": "address",
          "name": "owner",
          "type": "address"
        },
        {
          "indexed": true,
          "internalType": "address",
          "name": "operator",
          "type": "address"
        },
        {
          "indexed": false,
          "internalType": "bool",
          "name": "approved",
          "type": "bool"
        }
      ],
      "name": "ApprovalForAll",
      "type": "event"
    },
    {
      "anonymous": false,
      "inputs": [
        {
          "indexed": true,
          "internalType": "address",
          "name": "from",
          "type": "address"
        },
        {
          "indexed": true,
          "internalType": "address",
          "name": "to",
          "type": "address"
        },
        {
          "indexed": true,
          "internalType": "uint256",
          "name": "tokenId",
          "type": "uint256"
        }
      ],
      "name": "Transfer",
      "type": "event"
    },
    {
      "inputs": [
        {
          "internalType": "address",
          "name": "to",
          "type": "address"
        },
        {
          "internalType": "uint256",
          "name": "tokenId",
          "type": "uint256"
        }
      ],
      "name": "approve",
      "outputs": [],
      "stateMutability": "nonpayable",
      "type": "function"
    },
    {
      "inputs": [
        {
          "internalType": "address",
          "name": "owner",
          "type": "address"
        }
      ],
      "name": "balanceOf",
      "outputs": [
        {
          "internalType": "uint256",
          "name": "",
          "type": "uint256"
        }
      ],
      "stateMutability": "view",
      "type": "function",
      "constant": true
    },
    {
      "inputs": [
        {
          "internalType": "uint256",
          "name": "tokenId",
          "type": "uint256"
        }
      ],
      "name": "getApproved",
      "outputs": [
        {
          "internalType": "address",
          "name": "",
          "type": "address"
        }
      ],
      "stateMutability": "view",
      "type": "function",
      "constant": true
    },
    {
      "inputs": [
        {
          "internalType": "address",
          "name": "owner",
          "type": "address"
        },
        {
          "internalType": "address",
          "name": "operator",
          "type": "address"
        }
      ],
      "name": "isApprovedForAll",
      "outputs": [
        {
          "internalType": "bool",
          "name": "",
          "type": "bool"
        }
      ],
      "stateMutability": "view",
      "type": "function",
      "constant": true
    },
    {
      "inputs": [],
      "name": "name",
      "outputs": [
        {
          "internalType": "string",
          "name": "",
          "type": "string"
        }
      ],
      "stateMutability": "view",
      "type": "function",
      "constant": true
    },
    {
      "inputs": [
        {
          "internalType": "uint256",
          "name": "tokenId",
          "type": "uint256"
        }
      ],
      "name": "ownerOf",
      "outputs": [
        {
          "internalType": "address",
          "name": "",
          "type": "address"
        }
      ],
      "stateMutability": "view",
      "type": "function",
      "constant": true
    },
    {
      "inputs": [
        {
          "internalType": "address",
          "name": "from",
          "type": "address"
        },
        {
          "internalType": "address",
          "name": "to",
          "type": "address"
        },
        {
          "internalType": "uint256",
          "name": "tokenId",
          "type": "uint256"
        }
      ],
      "name": "safeTransferFrom",
      "outputs": [],
      "stateMutability": "nonpayable",
      "type": "function"
    },
    {
      "inputs": [
        {
          "internalType": "address",
          "name": "from",
          "type": "address"
        },
        {
          "internalType": "address",
          "name": "to",
          "type": "address"
        },
        {
          "internalType": "uint256",
          "name": "tokenId",
          "type": "uint256"
        },
        {
          "internalType": "bytes",
          "name": "data",
          "type": "bytes"
        }
      ],
      "name": "safeTransferFrom",
      "outputs": [],
      "stateMutability": "nonpayable",
      "type": "function"
    },
    {
      "inputs": [
        {
          "internalType": "address",
          "name": "operator",
          "type": "address"
        },
        {
          "internalType": "bool",
          "name": "approved",
          "type": "bool"
        }
      ],
      "name": "setApprovalForAll",
      "outputs": [],
      "stateMutability": "nonpayable",
      "type": "function"
    },
    {
      "inputs": [
        {
          "internalType": "bytes4",
          "name": "interfaceId",
          "type": "bytes4"
        }
      ],
      "name": "supportsInterface",
      "outputs": [
        {
          "internalType": "bool",
          "name": "",
          "type": "bool"
        }
      ],
      "stateMutability": "view",
      "type": "function",
      "constant": true
    },
    {
      "inputs": [],
      "name": "symbol",
      "outputs": [
        {
          "internalType": "string",
          "name": "",
          "type": "string"
        }
      ],
      "stateMutability": "view",
      "type": "function",
      "constant": true
    },
    {
      "inputs": [
        {
          "internalType": "address",
          "name": "from",
          "type": "address"
        },
        {
          "internalType": "address",
          "name": "to",
          "type": "address"
        },
        {
          "internalType": "uint256",
          "name": "tokenId",
          "type": "uint256"
        }
      ],
      "name": "transferFrom",
      "outputs": [],
      "stateMutability": "nonpayable",
      "type": "function"
    },
    {
      "inputs": [
        {
          "internalType": "address",
          "name": "to",
          "type": "address"
        },
        {
          "internalType": "string",
          "name": "_tokenUri",
          "type": "string"
        }
      ],
      "name": "safeMint",
      "outputs": [],
      "stateMutability": "nonpayable",
      "type": "function"
    },
    {
      "inputs": [
        {
          "internalType": "uint256",
          "name": "_tokenId",
          "type": "uint256"
        },
        {
          "internalType": "string",
          "name": "_newUri",
          "type": "string"
        }
      ],
      "name": "updateNFT",
      "outputs": [],
      "stateMutability": "nonpayable",
      "type": "function"
    },
    {
      "inputs": [
        {
          "internalType": "uint256",
          "name": "tokenId",
          "type": "uint256"
        }
      ],
      "name": "tokenURI",
      "outputs": [
        {
          "internalType": "string",
          "name": "",
          "type": "string"
        }
      ],
      "stateMutability": "view",
      "type": "function",
      "constant": true
    }
  ],
  "bytecode": "0x60806040523480156200001157600080fd5b506040518060400160405280600581526020017f444e4654730000000000000000000000000000000000000000000000000000008152506040518060400160405280600481526020017f644e46540000000000000000000000000000000000000000000000000000000081525081600090816200008f919062000324565b508060019081620000a1919062000324565b5050506200040b565b600081519050919050565b7f4e487b7100000000000000000000000000000000000000000000000000000000600052604160045260246000fd5b7f4e487b7100000000000000000000000000000000000000000000000000000000600052602260045260246000fd5b600060028204905060018216806200012c57607f821691505b602082108103620001425762000141620000e4565b5b50919050565b60008190508160005260206000209050919050565b60006020601f8301049050919050565b600082821b905092915050565b600060088302620001ac7fffffffffffffffffffffffffffffffffffffffffffffffffffffffffffffffff826200016d565b620001b886836200016d565b95508019841693508086168417925050509392505050565b6000819050919050565b6000819050919050565b600062000205620001ff620001f984620001d0565b620001da565b620001d0565b9050919050565b6000819050919050565b6200022183620001e4565b6200023962000230826200020c565b8484546200017a565b825550505050565b600090565b6200025062000241565b6200025d81848462000216565b505050565b5b8181101562000285576200027960008262000246565b60018101905062000263565b5050565b601f821115620002d4576200029e8162000148565b620002a9846200015d565b81016020851015620002b9578190505b620002d1620002c8856200015d565b83018262000262565b50505b505050565b600082821c905092915050565b6000620002f960001984600802620002d9565b1980831691505092915050565b6000620003148383620002e6565b9150826002028217905092915050565b6200032f82620000aa565b67ffffffffffffffff8111156200034b576200034a620000b5565b5b62000357825462000113565b6200036482828562000289565b600060209050601f8311600181146200039c576000841562000387578287015190505b62000393858262000306565b86555062000403565b601f198416620003ac8662000148565b60005b82811015620003d657848901518255600182019150602085019450602081019050620003af565b86831015620003f65784890151620003f2601f891682620002e6565b8355505b6001600288020188555050505b505050505050565b612b38806200041b6000396000f3fe608060405234801561001057600080fd5b50600436106100f55760003560e01c806370a0823111610097578063c318d8f811610066578063c318d8f814610282578063c87b56dd1461029e578063d204c45e146102ce578063e985e9c5146102ea576100f5565b806370a08231146101fc57806395d89b411461022c578063a22cb4651461024a578063b88d4fde14610266576100f5565b8063095ea7b3116100d3578063095ea7b31461017857806323b872dd1461019457806342842e0e146101b05780636352211e146101cc576100f5565b806301ffc9a7146100fa57806306fdde031461012a578063081812fc14610148575b600080fd5b610114600480360381019061010f919061185b565b61031a565b60405161012191906118a3565b60405180910390f35b6101326103fc565b60405161013f919061194e565b60405180910390f35b610162600480360381019061015d91906119a6565b61048e565b60405161016f9190611a14565b60405180910390f35b610192600480360381019061018d9190611a5b565b6104d4565b005b6101ae60048036038101906101a99190611a9b565b6105eb565b005b6101ca60048036038101906101c59190611a9b565b61064b565b005b6101e660048036038101906101e191906119a6565b61066b565b6040516101f39190611a14565b60405180910390f35b61021660048036038101906102119190611aee565b61071c565b6040516102239190611b2a565b60405180910390f35b6102346107d3565b604051610241919061194e565b60405180910390f35b610264600480360381019061025f9190611b71565b610865565b005b610280600480360381019061027b9190611ce6565b61087b565b005b61029c60048036038101906102979190611e0a565b6108dd565b005b6102b860048036038101906102b391906119a6565b6108eb565b6040516102c5919061194e565b60405180910390f35b6102e860048036038101906102e39190611e66565b6108fd565b005b61030460048036038101906102ff9190611ec2565b61092e565b60405161031191906118a3565b60405180910390f35b60007f80ac58cd000000000000000000000000000000000000000000000000000000007bffffffffffffffffffffffffffffffffffffffffffffffffffffffff1916827bffffffffffffffffffffffffffffffffffffffffffffffffffffffff191614806103e557507f5b5e139f000000000000000000000000000000000000000000000000000000007bffffffffffffffffffffffffffffffffffffffffffffffffffffffff1916827bffffffffffffffffffffffffffffffffffffffffffffffffffffffff1916145b806103f557506103f4826109c2565b5b9050919050565b60606000805461040b90611f31565b80601f016020809104026020016040519081016040528092919081815260200182805461043790611f31565b80156104845780601f1061045957610100808354040283529160200191610484565b820191906000526020600020905b81548152906001019060200180831161046757829003601f168201915b5050505050905090565b600061049982610a2c565b6004600083815260200190815260200160002060009054906101000a900473ffffffffffffffffffffffffffffffffffffffff169050919050565b60006104df8261066b565b90508073ffffffffffffffffffffffffffffffffffffffff168373ffffffffffffffffffffffffffffffffffffffff160361054f576040517f08c379a000000000000000000000000000000000000000000000000000000000815260040161054690611fd4565b60405180910390fd5b8073ffffffffffffffffffffffffffffffffffffffff1661056e610a77565b73ffffffffffffffffffffffffffffffffffffffff16148061059d575061059c81610597610a77565b61092e565b5b6105dc576040517f08c379a00000000000000000000000000000000000000000000000000000000081526004016105d390612066565b60405180910390fd5b6105e68383610a7f565b505050565b6105fc6105f6610a77565b82610b38565b61063b576040517f08c379a0000000000000000000000000000000000000000000000000000000008152600401610632906120f8565b60405180910390fd5b610646838383610bcd565b505050565b6106668383836040518060200160405280600081525061087b565b505050565b6000806002600084815260200190815260200160002060009054906101000a900473ffffffffffffffffffffffffffffffffffffffff169050600073ffffffffffffffffffffffffffffffffffffffff168173ffffffffffffffffffffffffffffffffffffffff1603610713576040517f08c379a000000000000000000000000000000000000000000000000000000000815260040161070a90612164565b60405180910390fd5b80915050919050565b60008073ffffffffffffffffffffffffffffffffffffffff168273ffffffffffffffffffffffffffffffffffffffff160361078c576040517f08c379a0000000000000000000000000000000000000000000000000000000008152600401610783906121f6565b60405180910390fd5b600360008373ffffffffffffffffffffffffffffffffffffffff1673ffffffffffffffffffffffffffffffffffffffff168152602001908152602001600020549050919050565b6060600180546107e290611f31565b80601f016020809104026020016040519081016040528092919081815260200182805461080e90611f31565b801561085b5780601f106108305761010080835404028352916020019161085b565b820191906000526020600020905b81548152906001019060200180831161083e57829003601f168201915b5050505050905090565b610877610870610a77565b8383610e33565b5050565b61088c610886610a77565b83610b38565b6108cb576040517f08c379a00000000000000000000000000000000000000000000000000000000081526004016108c2906120f8565b60405180910390fd5b6108d784848484610f9f565b50505050565b6108e78282610ffb565b5050565b60606108f682611068565b9050919050565b6000610909600761117a565b90506109156007611188565b61091f838261119e565b6109298183610ffb565b505050565b6000600560008473ffffffffffffffffffffffffffffffffffffffff1673ffffffffffffffffffffffffffffffffffffffff16815260200190815260200160002060008373ffffffffffffffffffffffffffffffffffffffff1673ffffffffffffffffffffffffffffffffffffffff16815260200190815260200160002060009054906101000a900460ff16905092915050565b60007f01ffc9a7000000000000000000000000000000000000000000000000000000007bffffffffffffffffffffffffffffffffffffffffffffffffffffffff1916827bffffffffffffffffffffffffffffffffffffffffffffffffffffffff1916149050919050565b610a35816111bc565b610a74576040517f08c379a0000000000000000000000000000000000000000000000000000000008152600401610a6b90612164565b60405180910390fd5b50565b600033905090565b816004600083815260200190815260200160002060006101000a81548173ffffffffffffffffffffffffffffffffffffffff021916908373ffffffffffffffffffffffffffffffffffffffff160217905550808273ffffffffffffffffffffffffffffffffffffffff16610af28361066b565b73ffffffffffffffffffffffffffffffffffffffff167f8c5be1e5ebec7d5bd14f71427d1e84f3dd0314c0f7b2291e5b200ac8c7c3b92560405160405180910390a45050565b600080610b448361066b565b90508073ffffffffffffffffffffffffffffffffffffffff168473ffffffffffffffffffffffffffffffffffffffff161480610b865750610b85818561092e565b5b80610bc457508373ffffffffffffffffffffffffffffffffffffffff16610bac8461048e565b73ffffffffffffffffffffffffffffffffffffffff16145b91505092915050565b8273ffffffffffffffffffffffffffffffffffffffff16610bed8261066b565b73ffffffffffffffffffffffffffffffffffffffff1614610c43576040517f08c379a0000000000000000000000000000000000000000000000000000000008152600401610c3a90612288565b60405180910390fd5b600073ffffffffffffffffffffffffffffffffffffffff168273ffffffffffffffffffffffffffffffffffffffff1603610cb2576040517f08c379a0000000000000000000000000000000000000000000000000000000008152600401610ca99061231a565b60405180910390fd5b610cbd838383611228565b610cc8600082610a7f565b6001600360008573ffffffffffffffffffffffffffffffffffffffff1673ffffffffffffffffffffffffffffffffffffffff1681526020019081526020016000206000828254610d189190612369565b925050819055506001600360008473ffffffffffffffffffffffffffffffffffffffff1673ffffffffffffffffffffffffffffffffffffffff1681526020019081526020016000206000828254610d6f919061239d565b92505081905550816002600083815260200190815260200160002060006101000a81548173ffffffffffffffffffffffffffffffffffffffff021916908373ffffffffffffffffffffffffffffffffffffffff160217905550808273ffffffffffffffffffffffffffffffffffffffff168473ffffffffffffffffffffffffffffffffffffffff167fddf252ad1be2c89b69c2b068fc378daa952ba7f163c4a11628f55a4df523b3ef60405160405180910390a4610e2e83838361122d565b505050565b8173ffffffffffffffffffffffffffffffffffffffff168373ffffffffffffffffffffffffffffffffffffffff1603610ea1576040517f08c379a0000000000000000000000000000000000000000000000000000000008152600401610e989061241d565b60405180910390fd5b80600560008573ffffffffffffffffffffffffffffffffffffffff1673ffffffffffffffffffffffffffffffffffffffff16815260200190815260200160002060008473ffffffffffffffffffffffffffffffffffffffff1673ffffffffffffffffffffffffffffffffffffffff16815260200190815260200160002060006101000a81548160ff0219169083151502179055508173ffffffffffffffffffffffffffffffffffffffff168373ffffffffffffffffffffffffffffffffffffffff167f17307eab39ab6107e8899845ad3d59bd9653f200f220920489ca2b5937696c3183604051610f9291906118a3565b60405180910390a3505050565b610faa848484610bcd565b610fb684848484611232565b610ff5576040517f08c379a0000000000000000000000000000000000000000000000000000000008152600401610fec906124af565b60405180910390fd5b50505050565b611004826111bc565b611043576040517f08c379a000000000000000000000000000000000000000000000000000000000815260040161103a90612541565b60405180910390fd5b80600660008481526020019081526020016000209081611063919061270d565b505050565b606061107382610a2c565b600060066000848152602001908152602001600020805461109390611f31565b80601f01602080910402602001604051908101604052809291908181526020018280546110bf90611f31565b801561110c5780601f106110e15761010080835404028352916020019161110c565b820191906000526020600020905b8154815290600101906020018083116110ef57829003601f168201915b50505050509050600061111d6113b9565b90506000815103611132578192505050611175565b60008251111561116757808260405160200161114f92919061281b565b60405160208183030381529060405292505050611175565b611170846113d0565b925050505b919050565b600081600001549050919050565b6001816000016000828254019250508190555050565b6111b8828260405180602001604052806000815250611438565b5050565b60008073ffffffffffffffffffffffffffffffffffffffff166002600084815260200190815260200160002060009054906101000a900473ffffffffffffffffffffffffffffffffffffffff1673ffffffffffffffffffffffffffffffffffffffff1614159050919050565b505050565b505050565b60006112538473ffffffffffffffffffffffffffffffffffffffff16611493565b156113ac578373ffffffffffffffffffffffffffffffffffffffff1663150b7a0261127c610a77565b8786866040518563ffffffff1660e01b815260040161129e9493929190612894565b6020604051808303816000875af19250505080156112da57506040513d601f19601f820116820180604052508101906112d791906128f5565b60015b61135c573d806000811461130a576040519150601f19603f3d011682016040523d82523d6000602084013e61130f565b606091505b506000815103611354576040517f08c379a000000000000000000000000000000000000000000000000000000000815260040161134b906124af565b60405180910390fd5b805181602001fd5b63150b7a0260e01b7bffffffffffffffffffffffffffffffffffffffffffffffffffffffff1916817bffffffffffffffffffffffffffffffffffffffffffffffffffffffff1916149150506113b1565b600190505b949350505050565b606060405180602001604052806000815250905090565b60606113db82610a2c565b60006113e56113b9565b905060008151116114055760405180602001604052806000815250611430565b8061140f846114b6565b60405160200161142092919061281b565b6040516020818303038152906040525b915050919050565b6114428383611616565b61144f6000848484611232565b61148e576040517f08c379a0000000000000000000000000000000000000000000000000000000008152600401611485906124af565b60405180910390fd5b505050565b6000808273ffffffffffffffffffffffffffffffffffffffff163b119050919050565b6060600082036114fd576040518060400160405280600181526020017f30000000000000000000000000000000000000000000000000000000000000008152509050611611565b600082905060005b6000821461152f57808061151890612922565b915050600a826115289190612999565b9150611505565b60008167ffffffffffffffff81111561154b5761154a611bbb565b5b6040519080825280601f01601f19166020018201604052801561157d5781602001600182028036833780820191505090505b5090505b6000851461160a576001826115969190612369565b9150600a856115a591906129ca565b60306115b1919061239d565b60f81b8183815181106115c7576115c66129fb565b5b60200101907effffffffffffffffffffffffffffffffffffffffffffffffffffffffffffff1916908160001a905350600a856116039190612999565b9450611581565b8093505050505b919050565b600073ffffffffffffffffffffffffffffffffffffffff168273ffffffffffffffffffffffffffffffffffffffff1603611685576040517f08c379a000000000000000000000000000000000000000000000000000000000815260040161167c90612a76565b60405180910390fd5b61168e816111bc565b156116ce576040517f08c379a00000000000000000000000000000000000000000000000000000000081526004016116c590612ae2565b60405180910390fd5b6116da60008383611228565b6001600360008473ffffffffffffffffffffffffffffffffffffffff1673ffffffffffffffffffffffffffffffffffffffff168152602001908152602001600020600082825461172a919061239d565b92505081905550816002600083815260200190815260200160002060006101000a81548173ffffffffffffffffffffffffffffffffffffffff021916908373ffffffffffffffffffffffffffffffffffffffff160217905550808273ffffffffffffffffffffffffffffffffffffffff16600073ffffffffffffffffffffffffffffffffffffffff167fddf252ad1be2c89b69c2b068fc378daa952ba7f163c4a11628f55a4df523b3ef60405160405180910390a46117eb6000838361122d565b5050565b6000604051905090565b600080fd5b600080fd5b60007fffffffff0000000000000000000000000000000000000000000000000000000082169050919050565b61183881611803565b811461184357600080fd5b50565b6000813590506118558161182f565b92915050565b600060208284031215611871576118706117f9565b5b600061187f84828501611846565b91505092915050565b60008115159050919050565b61189d81611888565b82525050565b60006020820190506118b86000830184611894565b92915050565b600081519050919050565b600082825260208201905092915050565b60005b838110156118f85780820151818401526020810190506118dd565b60008484015250505050565b6000601f19601f8301169050919050565b6000611920826118be565b61192a81856118c9565b935061193a8185602086016118da565b61194381611904565b840191505092915050565b600060208201905081810360008301526119688184611915565b905092915050565b6000819050919050565b61198381611970565b811461198e57600080fd5b50565b6000813590506119a08161197a565b92915050565b6000602082840312156119bc576119bb6117f9565b5b60006119ca84828501611991565b91505092915050565b600073ffffffffffffffffffffffffffffffffffffffff82169050919050565b60006119fe826119d3565b9050919050565b611a0e816119f3565b82525050565b6000602082019050611a296000830184611a05565b92915050565b611a38816119f3565b8114611a4357600080fd5b50565b600081359050611a5581611a2f565b92915050565b60008060408385031215611a7257611a716117f9565b5b6000611a8085828601611a46565b9250506020611a9185828601611991565b9150509250929050565b600080600060608486031215611ab457611ab36117f9565b5b6000611ac286828701611a46565b9350506020611ad386828701611a46565b9250506040611ae486828701611991565b9150509250925092565b600060208284031215611b0457611b036117f9565b5b6000611b1284828501611a46565b91505092915050565b611b2481611970565b82525050565b6000602082019050611b3f6000830184611b1b565b92915050565b611b4e81611888565b8114611b5957600080fd5b50565b600081359050611b6b81611b45565b92915050565b60008060408385031215611b8857611b876117f9565b5b6000611b9685828601611a46565b9250506020611ba785828601611b5c565b9150509250929050565b600080fd5b600080fd5b7f4e487b7100000000000000000000000000000000000000000000000000000000600052604160045260246000fd5b611bf382611904565b810181811067ffffffffffffffff82111715611c1257611c11611bbb565b5b80604052505050565b6000611c256117ef565b9050611c318282611bea565b919050565b600067ffffffffffffffff821115611c5157611c50611bbb565b5b611c5a82611904565b9050602081019050919050565b82818337600083830152505050565b6000611c89611c8484611c36565b611c1b565b905082815260208101848484011115611ca557611ca4611bb6565b5b611cb0848285611c67565b509392505050565b600082601f830112611ccd57611ccc611bb1565b5b8135611cdd848260208601611c76565b91505092915050565b60008060008060808587031215611d0057611cff6117f9565b5b6000611d0e87828801611a46565b9450506020611d1f87828801611a46565b9350506040611d3087828801611991565b925050606085013567ffffffffffffffff811115611d5157611d506117fe565b5b611d5d87828801611cb8565b91505092959194509250565b600067ffffffffffffffff821115611d8457611d83611bbb565b5b611d8d82611904565b9050602081019050919050565b6000611dad611da884611d69565b611c1b565b905082815260208101848484011115611dc957611dc8611bb6565b5b611dd4848285611c67565b509392505050565b600082601f830112611df157611df0611bb1565b5b8135611e01848260208601611d9a565b91505092915050565b60008060408385031215611e2157611e206117f9565b5b6000611e2f85828601611991565b925050602083013567ffffffffffffffff811115611e5057611e4f6117fe565b5b611e5c85828601611ddc565b9150509250929050565b60008060408385031215611e7d57611e7c6117f9565b5b6000611e8b85828601611a46565b925050602083013567ffffffffffffffff811115611eac57611eab6117fe565b5b611eb885828601611ddc565b9150509250929050565b60008060408385031215611ed957611ed86117f9565b5b6000611ee785828601611a46565b9250506020611ef885828601611a46565b9150509250929050565b7f4e487b7100000000000000000000000000000000000000000000000000000000600052602260045260246000fd5b60006002820490506001821680611f4957607f821691505b602082108103611f5c57611f5b611f02565b5b50919050565b7f4552433732313a20617070726f76616c20746f2063757272656e74206f776e6560008201527f7200000000000000000000000000000000000000000000000000000000000000602082015250565b6000611fbe6021836118c9565b9150611fc982611f62565b604082019050919050565b60006020820190508181036000830152611fed81611fb1565b9050919050565b7f4552433732313a20617070726f76652063616c6c6572206973206e6f7420746f60008201527f6b656e206f776e6572206e6f7220617070726f76656420666f7220616c6c0000602082015250565b6000612050603e836118c9565b915061205b82611ff4565b604082019050919050565b6000602082019050818103600083015261207f81612043565b9050919050565b7f4552433732313a2063616c6c6572206973206e6f7420746f6b656e206f776e6560008201527f72206e6f7220617070726f766564000000000000000000000000000000000000602082015250565b60006120e2602e836118c9565b91506120ed82612086565b604082019050919050565b60006020820190508181036000830152612111816120d5565b9050919050565b7f4552433732313a20696e76616c696420746f6b656e2049440000000000000000600082015250565b600061214e6018836118c9565b915061215982612118565b602082019050919050565b6000602082019050818103600083015261217d81612141565b9050919050565b7f4552433732313a2061646472657373207a65726f206973206e6f74206120766160008201527f6c6964206f776e65720000000000000000000000000000000000000000000000602082015250565b60006121e06029836118c9565b91506121eb82612184565b604082019050919050565b6000602082019050818103600083015261220f816121d3565b9050919050565b7f4552433732313a207472616e736665722066726f6d20696e636f72726563742060008201527f6f776e6572000000000000000000000000000000000000000000000000000000602082015250565b60006122726025836118c9565b915061227d82612216565b604082019050919050565b600060208201905081810360008301526122a181612265565b9050919050565b7f4552433732313a207472616e7366657220746f20746865207a65726f2061646460008201527f7265737300000000000000000000000000000000000000000000000000000000602082015250565b60006123046024836118c9565b915061230f826122a8565b604082019050919050565b60006020820190508181036000830152612333816122f7565b9050919050565b7f4e487b7100000000000000000000000000000000000000000000000000000000600052601160045260246000fd5b600061237482611970565b915061237f83611970565b92508282039050818111156123975761239661233a565b5b92915050565b60006123a882611970565b91506123b383611970565b92508282019050808211156123cb576123ca61233a565b5b92915050565b7f4552433732313a20617070726f766520746f2063616c6c657200000000000000600082015250565b60006124076019836118c9565b9150612412826123d1565b602082019050919050565b60006020820190508181036000830152612436816123fa565b9050919050565b7f4552433732313a207472616e7366657220746f206e6f6e20455243373231526560008201527f63656976657220696d706c656d656e7465720000000000000000000000000000602082015250565b60006124996032836118c9565b91506124a48261243d565b604082019050919050565b600060208201905081810360008301526124c88161248c565b9050919050565b7f45524337323155524953746f726167653a2055524920736574206f66206e6f6e60008201527f6578697374656e7420746f6b656e000000000000000000000000000000000000602082015250565b600061252b602e836118c9565b9150612536826124cf565b604082019050919050565b6000602082019050818103600083015261255a8161251e565b9050919050565b60008190508160005260206000209050919050565b60006020601f8301049050919050565b600082821b905092915050565b6000600883026125c37fffffffffffffffffffffffffffffffffffffffffffffffffffffffffffffffff82612586565b6125cd8683612586565b95508019841693508086168417925050509392505050565b6000819050919050565b600061260a61260561260084611970565b6125e5565b611970565b9050919050565b6000819050919050565b612624836125ef565b61263861263082612611565b848454612593565b825550505050565b600090565b61264d612640565b61265881848461261b565b505050565b5b8181101561267c57612671600082612645565b60018101905061265e565b5050565b601f8211156126c15761269281612561565b61269b84612576565b810160208510156126aa578190505b6126be6126b685612576565b83018261265d565b50505b505050565b600082821c905092915050565b60006126e4600019846008026126c6565b1980831691505092915050565b60006126fd83836126d3565b9150826002028217905092915050565b612716826118be565b67ffffffffffffffff81111561272f5761272e611bbb565b5b6127398254611f31565b612744828285612680565b600060209050601f8311600181146127775760008415612765578287015190505b61276f85826126f1565b8655506127d7565b601f19841661278586612561565b60005b828110156127ad57848901518255600182019150602085019450602081019050612788565b868310156127ca57848901516127c6601f8916826126d3565b8355505b6001600288020188555050505b505050505050565b600081905092915050565b60006127f5826118be565b6127ff81856127df565b935061280f8185602086016118da565b80840191505092915050565b600061282782856127ea565b915061283382846127ea565b91508190509392505050565b600081519050919050565b600082825260208201905092915050565b60006128668261283f565b612870818561284a565b93506128808185602086016118da565b61288981611904565b840191505092915050565b60006080820190506128a96000830187611a05565b6128b66020830186611a05565b6128c36040830185611b1b565b81810360608301526128d5818461285b565b905095945050505050565b6000815190506128ef8161182f565b92915050565b60006020828403121561290b5761290a6117f9565b5b6000612919848285016128e0565b91505092915050565b600061292d82611970565b91507fffffffffffffffffffffffffffffffffffffffffffffffffffffffffffffffff820361295f5761295e61233a565b5b600182019050919050565b7f4e487b7100000000000000000000000000000000000000000000000000000000600052601260045260246000fd5b60006129a482611970565b91506129af83611970565b9250826129bf576129be61296a565b5b828204905092915050565b60006129d582611970565b91506129e083611970565b9250826129f0576129ef61296a565b5b828206905092915050565b7f4e487b7100000000000000000000000000000000000000000000000000000000600052603260045260246000fd5b7f4552433732313a206d696e7420746f20746865207a65726f2061646472657373600082015250565b6000612a606020836118c9565b9150612a6b82612a2a565b602082019050919050565b60006020820190508181036000830152612a8f81612a53565b9050919050565b7f4552433732313a20746f6b656e20616c7265616479206d696e74656400000000600082015250565b6000612acc601c836118c9565b9150612ad782612a96565b602082019050919050565b60006020820190508181036000830152612afb81612abf565b905091905056fea2646970667358221220fd9824685e76058959ea83fcadec4c11cd71bfdddee2b74c2da5b0a829d01fbe64736f6c63430008110033",
  "immutableReferences": {},
  "source": "// SPDX-License-Identifier: MIT\r\npragma solidity >=0.4.22 <0.9.0;\r\n\r\nimport \"@openzeppelin/contracts/token/ERC721/extensions/ERC721URIStorage.sol\";\r\nimport \"@openzeppelin/contracts/utils/Counters.sol\";\r\n\r\ncontract DNFT is ERC721, ERC721URIStorage {\r\n\r\n  using Counters for Counters.Counter;\r\n\r\n  Counters.Counter private _tokenIdCounter;\r\n\r\n  constructor() ERC721(\"DNFTs\",\"dNFT\") {\r\n  }\r\n\r\n  function safeMint(address to, string memory _tokenUri) public {\r\n    uint256 tokenId = _tokenIdCounter.current();\r\n    _tokenIdCounter.increment();\r\n    _safeMint(to,tokenId);\r\n    _setTokenURI(tokenId, _tokenUri);\r\n  }\r\n\r\n  function updateNFT(uint256 _tokenId, string memory _newUri) public {\r\n    _setTokenURI(_tokenId,_newUri);\r\n  }\r\n\r\n  function _burn(uint256 tokenId)\r\n    internal\r\n    override(ERC721, ERC721URIStorage)\r\n  {\r\n      super._burn(tokenId);\r\n  }\r\n\r\n  function tokenURI(uint256 tokenId)\r\n      public\r\n      view\r\n      override(ERC721, ERC721URIStorage)\r\n      returns (string memory)\r\n  {\r\n      return super.tokenURI(tokenId);\r\n  }\r\n\r\n\r\n}",
  "sourcePath": "C:\\Users\\Kush\\Desktop\\DynamicNft\\contracts\\dNft.sol",
  "compiler": {
    "name": "solc",
    "version": "0.8.17+commit.8df45f5f.Emscripten.clang"
  },
  "schemaVersion": "3.4.10",
  "updatedAt": "2022-10-19T07:17:12.827Z",
  "networkType": "ethereum",
  "devdoc": {
    "kind": "dev",
    "methods": {
      "approve(address,uint256)": {
        "details": "See {IERC721-approve}."
      },
      "balanceOf(address)": {
        "details": "See {IERC721-balanceOf}."
      },
      "getApproved(uint256)": {
        "details": "See {IERC721-getApproved}."
      },
      "isApprovedForAll(address,address)": {
        "details": "See {IERC721-isApprovedForAll}."
      },
      "name()": {
        "details": "See {IERC721Metadata-name}."
      },
      "ownerOf(uint256)": {
        "details": "See {IERC721-ownerOf}."
      },
      "safeTransferFrom(address,address,uint256)": {
        "details": "See {IERC721-safeTransferFrom}."
      },
      "safeTransferFrom(address,address,uint256,bytes)": {
        "details": "See {IERC721-safeTransferFrom}."
      },
      "setApprovalForAll(address,bool)": {
        "details": "See {IERC721-setApprovalForAll}."
      },
      "supportsInterface(bytes4)": {
        "details": "See {IERC165-supportsInterface}."
      },
      "symbol()": {
        "details": "See {IERC721Metadata-symbol}."
      },
      "transferFrom(address,address,uint256)": {
        "details": "See {IERC721-transferFrom}."
      }
    },
    "version": 1
  },
  "userdoc": {
    "kind": "user",
    "methods": {},
    "version": 1
  }
}